{
  "address": "0x1488d135D338A0f065b4EE35397Cfc025870B181",
  "abi": [
    {
      "inputs": [],
      "name": "Charity__AlreadyEnded",
      "type": "error"
    },
    {
      "inputs": [],
      "name": "Charity__CharityBalanceEmpty",
      "type": "error"
    },
    {
      "inputs": [],
      "name": "Charity__CharityClosed",
      "type": "error"
    },
    {
      "inputs": [],
      "name": "Charity__InputAnAmountGreaterThanZero",
      "type": "error"
    },
    {
      "inputs": [
        {
          "internalType": "uint256",
          "name": "maxAmountToDonate",
          "type": "uint256"
        }
      ],
      "name": "Charity__MoreThanRequired",
      "type": "error"
    },
    {
      "inputs": [],
      "name": "Charity__NotEndedYet",
      "type": "error"
    },
    {
      "inputs": [],
      "name": "Charity__YouAreNotTheOwnerOfThisCharity",
      "type": "error"
    },
    {
      "inputs": [
        {
          "internalType": "uint256",
          "name": "_amountNeeded",
          "type": "uint256"
        },
        {
          "internalType": "string",
          "name": "_descriptionCid",
          "type": "string"
        },
        {
          "internalType": "string",
          "name": "_fileCid",
          "type": "string"
        }
      ],
      "name": "createFundMe",
      "outputs": [],
      "stateMutability": "nonpayable",
      "type": "function"
    },
    {
      "inputs": [
        {
          "internalType": "uint256",
          "name": "_charityId",
          "type": "uint256"
        }
      ],
      "name": "donate",
      "outputs": [],
      "stateMutability": "payable",
      "type": "function"
    },
    {
      "inputs": [
        {
          "internalType": "uint256",
          "name": "_charityId",
          "type": "uint256"
        }
      ],
      "name": "endFundMe",
      "outputs": [],
      "stateMutability": "nonpayable",
      "type": "function"
    },
    {
      "inputs": [
        {
          "internalType": "address",
          "name": "_user",
          "type": "address"
        }
      ],
      "name": "getAddressCharities",
      "outputs": [
        {
          "components": [
            {
              "internalType": "address",
              "name": "owner",
              "type": "address"
            },
            {
              "internalType": "uint256",
              "name": "amountNeeded",
              "type": "uint256"
            },
            {
              "internalType": "uint256",
              "name": "amountGotten",
              "type": "uint256"
            },
            {
              "internalType": "bool",
              "name": "withdrawalStatus",
              "type": "bool"
            },
            {
              "internalType": "bool",
              "name": "charityState",
              "type": "bool"
            },
            {
              "internalType": "uint256",
              "name": "charityId",
              "type": "uint256"
            },
            {
              "internalType": "string",
              "name": "descriptionCid",
              "type": "string"
            },
            {
              "internalType": "string",
              "name": "fileCid",
              "type": "string"
            }
          ],
          "internalType": "struct Charity.Charities[]",
          "name": "",
          "type": "tuple[]"
        }
      ],
      "stateMutability": "view",
      "type": "function"
    },
    {
      "inputs": [],
      "name": "getAllCharities",
      "outputs": [
        {
          "components": [
            {
              "internalType": "address",
              "name": "owner",
              "type": "address"
            },
            {
              "internalType": "uint256",
              "name": "amountNeeded",
              "type": "uint256"
            },
            {
              "internalType": "uint256",
              "name": "amountGotten",
              "type": "uint256"
            },
            {
              "internalType": "bool",
              "name": "withdrawalStatus",
              "type": "bool"
            },
            {
              "internalType": "bool",
              "name": "charityState",
              "type": "bool"
            },
            {
              "internalType": "uint256",
              "name": "charityId",
              "type": "uint256"
            },
            {
              "internalType": "string",
              "name": "descriptionCid",
              "type": "string"
            },
            {
              "internalType": "string",
              "name": "fileCid",
              "type": "string"
            }
          ],
          "internalType": "struct Charity.Charities[]",
          "name": "",
          "type": "tuple[]"
        }
      ],
      "stateMutability": "view",
      "type": "function"
    },
    {
      "inputs": [],
      "name": "getAllDonations",
      "outputs": [
        {
          "components": [
            {
              "internalType": "address",
              "name": "contributor",
              "type": "address"
            },
            {
              "internalType": "uint256",
              "name": "amountDonated",
              "type": "uint256"
            },
            {
              "internalType": "uint256",
              "name": "charityId",
              "type": "uint256"
            }
          ],
          "internalType": "struct Charity.Donations[]",
          "name": "",
          "type": "tuple[]"
        }
      ],
      "stateMutability": "view",
      "type": "function"
    },
    {
      "inputs": [],
      "name": "getClosedCharities",
      "outputs": [
        {
          "components": [
            {
              "internalType": "address",
              "name": "owner",
              "type": "address"
            },
            {
              "internalType": "uint256",
              "name": "amountNeeded",
              "type": "uint256"
            },
            {
              "internalType": "uint256",
              "name": "amountGotten",
              "type": "uint256"
            },
            {
              "internalType": "bool",
              "name": "withdrawalStatus",
              "type": "bool"
            },
            {
              "internalType": "bool",
              "name": "charityState",
              "type": "bool"
            },
            {
              "internalType": "uint256",
              "name": "charityId",
              "type": "uint256"
            },
            {
              "internalType": "string",
              "name": "descriptionCid",
              "type": "string"
            },
            {
              "internalType": "string",
              "name": "fileCid",
              "type": "string"
            }
          ],
          "internalType": "struct Charity.Charities[]",
          "name": "",
          "type": "tuple[]"
        }
      ],
      "stateMutability": "view",
      "type": "function"
    },
    {
      "inputs": [
        {
          "internalType": "uint256",
          "name": "_charityId",
          "type": "uint256"
        }
      ],
      "name": "getDonationsByCharity",
      "outputs": [
        {
          "components": [
            {
              "internalType": "address",
              "name": "contributor",
              "type": "address"
            },
            {
              "internalType": "uint256",
              "name": "amountDonated",
              "type": "uint256"
            },
            {
              "internalType": "uint256",
              "name": "charityId",
              "type": "uint256"
            }
          ],
          "internalType": "struct Charity.Donations[]",
          "name": "",
          "type": "tuple[]"
        }
      ],
      "stateMutability": "view",
      "type": "function"
    },
    {
      "inputs": [
        {
          "internalType": "address",
          "name": "_contributor",
          "type": "address"
        }
      ],
      "name": "getMyDonations",
      "outputs": [
        {
          "components": [
            {
              "internalType": "address",
              "name": "contributor",
              "type": "address"
            },
            {
              "internalType": "uint256",
              "name": "amountDonated",
              "type": "uint256"
            },
            {
              "internalType": "uint256",
              "name": "charityId",
              "type": "uint256"
            }
          ],
          "internalType": "struct Charity.Donations[]",
          "name": "",
          "type": "tuple[]"
        }
      ],
      "stateMutability": "view",
      "type": "function"
    },
    {
      "inputs": [],
      "name": "getOpenCharities",
      "outputs": [
        {
          "components": [
            {
              "internalType": "address",
              "name": "owner",
              "type": "address"
            },
            {
              "internalType": "uint256",
              "name": "amountNeeded",
              "type": "uint256"
            },
            {
              "internalType": "uint256",
              "name": "amountGotten",
              "type": "uint256"
            },
            {
              "internalType": "bool",
              "name": "withdrawalStatus",
              "type": "bool"
            },
            {
              "internalType": "bool",
              "name": "charityState",
              "type": "bool"
            },
            {
              "internalType": "uint256",
              "name": "charityId",
              "type": "uint256"
            },
            {
              "internalType": "string",
              "name": "descriptionCid",
              "type": "string"
            },
            {
              "internalType": "string",
              "name": "fileCid",
              "type": "string"
            }
          ],
          "internalType": "struct Charity.Charities[]",
          "name": "",
          "type": "tuple[]"
        }
      ],
      "stateMutability": "view",
      "type": "function"
    },
    {
      "inputs": [
        {
          "internalType": "uint256",
          "name": "_charityId",
          "type": "uint256"
        }
      ],
      "name": "withdraw",
      "outputs": [],
      "stateMutability": "nonpayable",
      "type": "function"
    }
  ],
  "transactionHash": "0xa2c64272e51f2c9bda759f43024ee3b59151bfba985f4e057317d9aa933ab2d7",
  "args": [],
  "numDeployments": 1,
  "solcInputHash": "47b99272d5a3178f78e4d087a63ef02d",
  "bytecode": "0x608060405234801561001057600080fd5b506136ae806100206000396000f3fe60806040526004361061009c5760003560e01c806354308103116100645780635430810314610198578063b5bbd279146101d5578063c02bb35714610200578063cbba88451461022b578063f14faf6f14610256578063fa3bea09146102725761009c565b80630780eaa3146100a157806317f99f07146100de5780632e1a7d4d1461010757806338a59a07146101305780634d57b5a51461015b575b600080fd5b3480156100ad57600080fd5b506100c860048036038101906100c39190612ed1565b61029b565b6040516100d59190613263565b60405180910390f35b3480156100ea57600080fd5b5061010560048036038101906101009190612efa565b6105d5565b005b34801561011357600080fd5b5061012e60048036038101906101299190612ed1565b610742565b005b34801561013c57600080fd5b50610145610a8d565b6040516101529190613263565b60405180910390f35b34801561016757600080fd5b50610182600480360381019061017d9190612ea8565b610d71565b60405161018f9190613263565b60405180910390f35b3480156101a457600080fd5b506101bf60048036038101906101ba9190612ea8565b6110f7565b6040516101cc9190613241565b60405180910390f35b3480156101e157600080fd5b506101ea6115e1565b6040516101f79190613241565b60405180910390f35b34801561020c57600080fd5b50610215611a29565b6040516102229190613241565b60405180910390f35b34801561023757600080fd5b50610240611ed7565b60405161024d9190613241565b60405180910390f35b610270600480360381019061026b9190612ed1565b612385565b005b34801561027e57600080fd5b5061029960048036038101906102949190612ed1565b612b10565b005b6060600060018054905067ffffffffffffffff8111156102e4577f4e487b7100000000000000000000000000000000000000000000000000000000600052604160045260246000fd5b60405190808252806020026020018201604052801561031d57816020015b61030a612cdd565b8152602001906001900390816103025790505b5090506000805b6001805490508110156104a7576001818154811061036b577f4e487b7100000000000000000000000000000000000000000000000000000000600052603260045260246000fd5b90600052602060002090600302016002015485141561049457600181815481106103be577f4e487b7100000000000000000000000000000000000000000000000000000000600052603260045260246000fd5b90600052602060002090600302016040518060600160405290816000820160009054906101000a900473ffffffffffffffffffffffffffffffffffffffff1673ffffffffffffffffffffffffffffffffffffffff1673ffffffffffffffffffffffffffffffffffffffff1681526020016001820154815260200160028201548152505083838151811061047a577f4e487b7100000000000000000000000000000000000000000000000000000000600052603260045260246000fd5b6020026020010181905250818061049090613537565b9250505b808061049f90613537565b915050610324565b5060008167ffffffffffffffff8111156104ea577f4e487b7100000000000000000000000000000000000000000000000000000000600052604160045260246000fd5b60405190808252806020026020018201604052801561052357816020015b610510612cdd565b8152602001906001900390816105085790505b50905060005b828110156105c95783818151811061056a577f4e487b7100000000000000000000000000000000000000000000000000000000600052603260045260246000fd5b60200260200101518282815181106105ab577f4e487b7100000000000000000000000000000000000000000000000000000000600052603260045260246000fd5b602002602001018190525080806105c190613537565b915050610529565b50809350505050919050565b60006040518061010001604052803373ffffffffffffffffffffffffffffffffffffffff16815260200185815260200160008152602001600015158152602001600115158152602001600080549050815260200184815260200183815250908060018154018082558091505060019003906000526020600020906007020160009091909190915060008201518160000160006101000a81548173ffffffffffffffffffffffffffffffffffffffff021916908373ffffffffffffffffffffffffffffffffffffffff160217905550602082015181600101556040820151816002015560608201518160030160006101000a81548160ff02191690831515021790555060808201518160030160016101000a81548160ff02191690831515021790555060a0820151816004015560c082015181600501908051906020019061071d929190612d14565b5060e082015181600601908051906020019061073a929190612d14565b505050505050565b6000818154811061077c577f4e487b7100000000000000000000000000000000000000000000000000000000600052603260045260246000fd5b906000526020600020906007020160000160009054906101000a900473ffffffffffffffffffffffffffffffffffffffff1673ffffffffffffffffffffffffffffffffffffffff163373ffffffffffffffffffffffffffffffffffffffff1614610812576040517ffebcc57300000000000000000000000000000000000000000000000000000000815260040160405180910390fd5b6001151560008281548110610850577f4e487b7100000000000000000000000000000000000000000000000000000000600052603260045260246000fd5b906000526020600020906007020160030160019054906101000a900460ff16151514156108a9576040517f8d4c72af00000000000000000000000000000000000000000000000000000000815260040160405180910390fd5b60008082815481106108e4577f4e487b7100000000000000000000000000000000000000000000000000000000600052603260045260246000fd5b906000526020600020906007020160020154141561092e576040517f7b1e9a7100000000000000000000000000000000000000000000000000000000815260040160405180910390fd5b60016000828154811061096a577f4e487b7100000000000000000000000000000000000000000000000000000000600052603260045260246000fd5b906000526020600020906007020160030160006101000a81548160ff02191690831515021790555060003373ffffffffffffffffffffffffffffffffffffffff16600083815481106109e5577f4e487b7100000000000000000000000000000000000000000000000000000000600052603260045260246000fd5b906000526020600020906007020160020154604051610a039061322c565b60006040518083038185875af1925050503d8060008114610a40576040519150601f19603f3d011682016040523d82523d6000602084013e610a45565b606091505b5050905080610a89576040517f08c379a0000000000000000000000000000000000000000000000000000000008152600401610a8090613285565b60405180910390fd5b5050565b6060600060018054905067ffffffffffffffff811115610ad6577f4e487b7100000000000000000000000000000000000000000000000000000000600052604160045260246000fd5b604051908082528060200260200182016040528015610b0f57816020015b610afc612cdd565b815260200190600190039081610af45790505b5090506000805b600180549050811015610c455760018181548110610b5d577f4e487b7100000000000000000000000000000000000000000000000000000000600052603260045260246000fd5b90600052602060002090600302016040518060600160405290816000820160009054906101000a900473ffffffffffffffffffffffffffffffffffffffff1673ffffffffffffffffffffffffffffffffffffffff1673ffffffffffffffffffffffffffffffffffffffff16815260200160018201548152602001600282015481525050838381518110610c19577f4e487b7100000000000000000000000000000000000000000000000000000000600052603260045260246000fd5b60200260200101819052508180610c2f90613537565b9250508080610c3d90613537565b915050610b16565b5060008167ffffffffffffffff811115610c88577f4e487b7100000000000000000000000000000000000000000000000000000000600052604160045260246000fd5b604051908082528060200260200182016040528015610cc157816020015b610cae612cdd565b815260200190600190039081610ca65790505b50905060005b82811015610d6757838181518110610d08577f4e487b7100000000000000000000000000000000000000000000000000000000600052603260045260246000fd5b6020026020010151828281518110610d49577f4e487b7100000000000000000000000000000000000000000000000000000000600052603260045260246000fd5b60200260200101819052508080610d5f90613537565b915050610cc7565b5080935050505090565b6060600060018054905067ffffffffffffffff811115610dba577f4e487b7100000000000000000000000000000000000000000000000000000000600052604160045260246000fd5b604051908082528060200260200182016040528015610df357816020015b610de0612cdd565b815260200190600190039081610dd85790505b5090506000805b600180549050811015610fc95760018181548110610e41577f4e487b7100000000000000000000000000000000000000000000000000000000600052603260045260246000fd5b906000526020600020906003020160000160009054906101000a900473ffffffffffffffffffffffffffffffffffffffff1673ffffffffffffffffffffffffffffffffffffffff168573ffffffffffffffffffffffffffffffffffffffff161415610fb65760018181548110610ee0577f4e487b7100000000000000000000000000000000000000000000000000000000600052603260045260246000fd5b90600052602060002090600302016040518060600160405290816000820160009054906101000a900473ffffffffffffffffffffffffffffffffffffffff1673ffffffffffffffffffffffffffffffffffffffff1673ffffffffffffffffffffffffffffffffffffffff16815260200160018201548152602001600282015481525050838381518110610f9c577f4e487b7100000000000000000000000000000000000000000000000000000000600052603260045260246000fd5b60200260200101819052508180610fb290613537565b9250505b8080610fc190613537565b915050610dfa565b5060008167ffffffffffffffff81111561100c577f4e487b7100000000000000000000000000000000000000000000000000000000600052604160045260246000fd5b60405190808252806020026020018201604052801561104557816020015b611032612cdd565b81526020019060019003908161102a5790505b50905060005b828110156110eb5783818151811061108c577f4e487b7100000000000000000000000000000000000000000000000000000000600052603260045260246000fd5b60200260200101518282815181106110cd577f4e487b7100000000000000000000000000000000000000000000000000000000600052603260045260246000fd5b602002602001018190525080806110e390613537565b91505061104b565b50809350505050919050565b60606000808054905067ffffffffffffffff81111561113f577f4e487b7100000000000000000000000000000000000000000000000000000000600052604160045260246000fd5b60405190808252806020026020018201604052801561117857816020015b611165612d9a565b81526020019060019003908161115d5790505b5090506000805b6000805490508110156114b357600081815481106111c6577f4e487b7100000000000000000000000000000000000000000000000000000000600052603260045260246000fd5b906000526020600020906007020160000160009054906101000a900473ffffffffffffffffffffffffffffffffffffffff1673ffffffffffffffffffffffffffffffffffffffff168573ffffffffffffffffffffffffffffffffffffffff1614156114a05760008181548110611265577f4e487b7100000000000000000000000000000000000000000000000000000000600052603260045260246000fd5b9060005260206000209060070201604051806101000160405290816000820160009054906101000a900473ffffffffffffffffffffffffffffffffffffffff1673ffffffffffffffffffffffffffffffffffffffff1673ffffffffffffffffffffffffffffffffffffffff16815260200160018201548152602001600282015481526020016003820160009054906101000a900460ff161515151581526020016003820160019054906101000a900460ff1615151515815260200160048201548152602001600582018054611339906134d4565b80601f0160208091040260200160405190810160405280929190818152602001828054611365906134d4565b80156113b25780601f10611387576101008083540402835291602001916113b2565b820191906000526020600020905b81548152906001019060200180831161139557829003601f168201915b505050505081526020016006820180546113cb906134d4565b80601f01602080910402602001604051908101604052809291908181526020018280546113f7906134d4565b80156114445780601f1061141957610100808354040283529160200191611444565b820191906000526020600020905b81548152906001019060200180831161142757829003601f168201915b505050505081525050838381518110611486577f4e487b7100000000000000000000000000000000000000000000000000000000600052603260045260246000fd5b6020026020010181905250818061149c90613537565b9250505b80806114ab90613537565b91505061117f565b5060008167ffffffffffffffff8111156114f6577f4e487b7100000000000000000000000000000000000000000000000000000000600052604160045260246000fd5b60405190808252806020026020018201604052801561152f57816020015b61151c612d9a565b8152602001906001900390816115145790505b50905060005b828110156115d557838181518110611576577f4e487b7100000000000000000000000000000000000000000000000000000000600052603260045260246000fd5b60200260200101518282815181106115b7577f4e487b7100000000000000000000000000000000000000000000000000000000600052603260045260246000fd5b602002602001018190525080806115cd90613537565b915050611535565b50809350505050919050565b60606000808054905067ffffffffffffffff811115611629577f4e487b7100000000000000000000000000000000000000000000000000000000600052604160045260246000fd5b60405190808252806020026020018201604052801561166257816020015b61164f612d9a565b8152602001906001900390816116475790505b5090506000805b6000805490508110156118fd57600081815481106116b0577f4e487b7100000000000000000000000000000000000000000000000000000000600052603260045260246000fd5b9060005260206000209060070201604051806101000160405290816000820160009054906101000a900473ffffffffffffffffffffffffffffffffffffffff1673ffffffffffffffffffffffffffffffffffffffff1673ffffffffffffffffffffffffffffffffffffffff16815260200160018201548152602001600282015481526020016003820160009054906101000a900460ff161515151581526020016003820160019054906101000a900460ff1615151515815260200160048201548152602001600582018054611784906134d4565b80601f01602080910402602001604051908101604052809291908181526020018280546117b0906134d4565b80156117fd5780601f106117d2576101008083540402835291602001916117fd565b820191906000526020600020905b8154815290600101906020018083116117e057829003601f168201915b50505050508152602001600682018054611816906134d4565b80601f0160208091040260200160405190810160405280929190818152602001828054611842906134d4565b801561188f5780601f106118645761010080835404028352916020019161188f565b820191906000526020600020905b81548152906001019060200180831161187257829003601f168201915b5050505050815250508383815181106118d1577f4e487b7100000000000000000000000000000000000000000000000000000000600052603260045260246000fd5b602002602001018190525081806118e790613537565b92505080806118f590613537565b915050611669565b5060008167ffffffffffffffff811115611940577f4e487b7100000000000000000000000000000000000000000000000000000000600052604160045260246000fd5b60405190808252806020026020018201604052801561197957816020015b611966612d9a565b81526020019060019003908161195e5790505b50905060005b82811015611a1f578381815181106119c0577f4e487b7100000000000000000000000000000000000000000000000000000000600052603260045260246000fd5b6020026020010151828281518110611a01577f4e487b7100000000000000000000000000000000000000000000000000000000600052603260045260246000fd5b60200260200101819052508080611a1790613537565b91505061197f565b5080935050505090565b60606000808054905067ffffffffffffffff811115611a71577f4e487b7100000000000000000000000000000000000000000000000000000000600052604160045260246000fd5b604051908082528060200260200182016040528015611aaa57816020015b611a97612d9a565b815260200190600190039081611a8f5790505b5090506000805b600080549050811015611dab576000151560008281548110611afc577f4e487b7100000000000000000000000000000000000000000000000000000000600052603260045260246000fd5b906000526020600020906007020160030160019054906101000a900460ff1615151415611d985760008181548110611b5d577f4e487b7100000000000000000000000000000000000000000000000000000000600052603260045260246000fd5b9060005260206000209060070201604051806101000160405290816000820160009054906101000a900473ffffffffffffffffffffffffffffffffffffffff1673ffffffffffffffffffffffffffffffffffffffff1673ffffffffffffffffffffffffffffffffffffffff16815260200160018201548152602001600282015481526020016003820160009054906101000a900460ff161515151581526020016003820160019054906101000a900460ff1615151515815260200160048201548152602001600582018054611c31906134d4565b80601f0160208091040260200160405190810160405280929190818152602001828054611c5d906134d4565b8015611caa5780601f10611c7f57610100808354040283529160200191611caa565b820191906000526020600020905b815481529060010190602001808311611c8d57829003601f168201915b50505050508152602001600682018054611cc3906134d4565b80601f0160208091040260200160405190810160405280929190818152602001828054611cef906134d4565b8015611d3c5780601f10611d1157610100808354040283529160200191611d3c565b820191906000526020600020905b815481529060010190602001808311611d1f57829003601f168201915b505050505081525050838381518110611d7e577f4e487b7100000000000000000000000000000000000000000000000000000000600052603260045260246000fd5b60200260200101819052508180611d9490613537565b9250505b8080611da390613537565b915050611ab1565b5060008167ffffffffffffffff811115611dee577f4e487b7100000000000000000000000000000000000000000000000000000000600052604160045260246000fd5b604051908082528060200260200182016040528015611e2757816020015b611e14612d9a565b815260200190600190039081611e0c5790505b50905060005b82811015611ecd57838181518110611e6e577f4e487b7100000000000000000000000000000000000000000000000000000000600052603260045260246000fd5b6020026020010151828281518110611eaf577f4e487b7100000000000000000000000000000000000000000000000000000000600052603260045260246000fd5b60200260200101819052508080611ec590613537565b915050611e2d565b5080935050505090565b60606000808054905067ffffffffffffffff811115611f1f577f4e487b7100000000000000000000000000000000000000000000000000000000600052604160045260246000fd5b604051908082528060200260200182016040528015611f5857816020015b611f45612d9a565b815260200190600190039081611f3d5790505b5090506000805b600080549050811015612259576001151560008281548110611faa577f4e487b7100000000000000000000000000000000000000000000000000000000600052603260045260246000fd5b906000526020600020906007020160030160019054906101000a900460ff1615151415612246576000818154811061200b577f4e487b7100000000000000000000000000000000000000000000000000000000600052603260045260246000fd5b9060005260206000209060070201604051806101000160405290816000820160009054906101000a900473ffffffffffffffffffffffffffffffffffffffff1673ffffffffffffffffffffffffffffffffffffffff1673ffffffffffffffffffffffffffffffffffffffff16815260200160018201548152602001600282015481526020016003820160009054906101000a900460ff161515151581526020016003820160019054906101000a900460ff16151515158152602001600482015481526020016005820180546120df906134d4565b80601f016020809104026020016040519081016040528092919081815260200182805461210b906134d4565b80156121585780601f1061212d57610100808354040283529160200191612158565b820191906000526020600020905b81548152906001019060200180831161213b57829003601f168201915b50505050508152602001600682018054612171906134d4565b80601f016020809104026020016040519081016040528092919081815260200182805461219d906134d4565b80156121ea5780601f106121bf576101008083540402835291602001916121ea565b820191906000526020600020905b8154815290600101906020018083116121cd57829003601f168201915b50505050508152505083838151811061222c577f4e487b7100000000000000000000000000000000000000000000000000000000600052603260045260246000fd5b6020026020010181905250818061224290613537565b9250505b808061225190613537565b915050611f5f565b5060008167ffffffffffffffff81111561229c577f4e487b7100000000000000000000000000000000000000000000000000000000600052604160045260246000fd5b6040519080825280602002602001820160405280156122d557816020015b6122c2612d9a565b8152602001906001900390816122ba5790505b50905060005b8281101561237b5783818151811061231c577f4e487b7100000000000000000000000000000000000000000000000000000000600052603260045260246000fd5b602002602001015182828151811061235d577f4e487b7100000000000000000000000000000000000000000000000000000000600052603260045260246000fd5b6020026020010181905250808061237390613537565b9150506122db565b5080935050505090565b60003414156123c0576040517fdfc296a500000000000000000000000000000000000000000000000000000000815260040160405180910390fd5b60001515600082815481106123fe577f4e487b7100000000000000000000000000000000000000000000000000000000600052603260045260246000fd5b906000526020600020906007020160030160019054906101000a900460ff1615151415612457576040517f9687403300000000000000000000000000000000000000000000000000000000815260040160405180910390fd5b3460008281548110612492577f4e487b7100000000000000000000000000000000000000000000000000000000600052603260045260246000fd5b906000526020600020906007020160020154600083815481106124de577f4e487b7100000000000000000000000000000000000000000000000000000000600052603260045260246000fd5b9060005260206000209060070201600101546124fa9190613416565b11801561256357506001151560008281548110612540577f4e487b7100000000000000000000000000000000000000000000000000000000600052603260045260246000fd5b906000526020600020906007020160030160019054906101000a900460ff161515145b156126885734600082815481106125a3577f4e487b7100000000000000000000000000000000000000000000000000000000600052603260045260246000fd5b906000526020600020906007020160020160008282546125c391906133c0565b92505081905550600160405180606001604052803373ffffffffffffffffffffffffffffffffffffffff16815260200134815260200183815250908060018154018082558091505060019003906000526020600020906003020160009091909190915060008201518160000160006101000a81548173ffffffffffffffffffffffffffffffffffffffff021916908373ffffffffffffffffffffffffffffffffffffffff16021790555060208201518160010155604082015181600201555050612b0d565b34600082815481106126c3577f4e487b7100000000000000000000000000000000000000000000000000000000600052603260045260246000fd5b9060005260206000209060070201600201546000838154811061270f577f4e487b7100000000000000000000000000000000000000000000000000000000600052603260045260246000fd5b90600052602060002090600702016001015461272b9190613416565b14801561279457506001151560008281548110612771577f4e487b7100000000000000000000000000000000000000000000000000000000600052603260045260246000fd5b906000526020600020906007020160030160019054906101000a900460ff161515145b1561291c5760008082815481106127d4577f4e487b7100000000000000000000000000000000000000000000000000000000600052603260045260246000fd5b906000526020600020906007020160030160016101000a81548160ff0219169083151502179055503460008281548110612837577f4e487b7100000000000000000000000000000000000000000000000000000000600052603260045260246000fd5b9060005260206000209060070201600201600082825461285791906133c0565b92505081905550600160405180606001604052803373ffffffffffffffffffffffffffffffffffffffff16815260200134815260200183815250908060018154018082558091505060019003906000526020600020906003020160009091909190915060008201518160000160006101000a81548173ffffffffffffffffffffffffffffffffffffffff021916908373ffffffffffffffffffffffffffffffffffffffff16021790555060208201518160010155604082015181600201555050612b0c565b3460008281548110612957577f4e487b7100000000000000000000000000000000000000000000000000000000600052603260045260246000fd5b906000526020600020906007020160020154600083815481106129a3577f4e487b7100000000000000000000000000000000000000000000000000000000600052603260045260246000fd5b9060005260206000209060070201600101546129bf9190613416565b108015612a2857506001151560008281548110612a05577f4e487b7100000000000000000000000000000000000000000000000000000000600052603260045260246000fd5b906000526020600020906007020160030160019054906101000a900460ff161515145b15612b0b5760008181548110612a67577f4e487b7100000000000000000000000000000000000000000000000000000000600052603260045260246000fd5b90600052602060002090600702016002015460008281548110612ab3577f4e487b7100000000000000000000000000000000000000000000000000000000600052603260045260246000fd5b906000526020600020906007020160010154612acf9190613416565b6040517f13e3c059000000000000000000000000000000000000000000000000000000008152600401612b0291906132a5565b60405180910390fd5b5b5b50565b60008181548110612b4a577f4e487b7100000000000000000000000000000000000000000000000000000000600052603260045260246000fd5b906000526020600020906007020160000160009054906101000a900473ffffffffffffffffffffffffffffffffffffffff1673ffffffffffffffffffffffffffffffffffffffff163373ffffffffffffffffffffffffffffffffffffffff1614612be0576040517ffebcc57300000000000000000000000000000000000000000000000000000000815260040160405180910390fd5b6000151560008281548110612c1e577f4e487b7100000000000000000000000000000000000000000000000000000000600052603260045260246000fd5b906000526020600020906007020160030160019054906101000a900460ff1615151415612c77576040517fa2110b9d00000000000000000000000000000000000000000000000000000000815260040160405180910390fd5b6000808281548110612cb2577f4e487b7100000000000000000000000000000000000000000000000000000000600052603260045260246000fd5b906000526020600020906007020160030160016101000a81548160ff02191690831515021790555050565b6040518060600160405280600073ffffffffffffffffffffffffffffffffffffffff16815260200160008152602001600081525090565b828054612d20906134d4565b90600052602060002090601f016020900481019282612d425760008555612d89565b82601f10612d5b57805160ff1916838001178555612d89565b82800160010185558215612d89579182015b82811115612d88578251825591602001919060010190612d6d565b5b509050612d969190612df9565b5090565b604051806101000160405280600073ffffffffffffffffffffffffffffffffffffffff16815260200160008152602001600081526020016000151581526020016000151581526020016000815260200160608152602001606081525090565b5b80821115612e12576000816000905550600101612dfa565b5090565b6000612e29612e24846132e5565b6132c0565b905082815260208101848484011115612e4157600080fd5b612e4c848285613492565b509392505050565b600081359050612e638161364a565b92915050565b600082601f830112612e7a57600080fd5b8135612e8a848260208601612e16565b91505092915050565b600081359050612ea281613661565b92915050565b600060208284031215612eba57600080fd5b6000612ec884828501612e54565b91505092915050565b600060208284031215612ee357600080fd5b6000612ef184828501612e93565b91505092915050565b600080600060608486031215612f0f57600080fd5b6000612f1d86828701612e93565b935050602084013567ffffffffffffffff811115612f3a57600080fd5b612f4686828701612e69565b925050604084013567ffffffffffffffff811115612f6357600080fd5b612f6f86828701612e69565b9150509250925092565b6000612f858383613115565b905092915050565b6000612f9983836131cc565b60608301905092915050565b612fae8161344a565b82525050565b6000612fbf82613336565b612fc98185613371565b935083602082028501612fdb85613316565b8060005b858110156130175784840389528151612ff88582612f79565b945061300383613357565b925060208a01995050600181019050612fdf565b50829750879550505050505092915050565b600061303482613341565b61303e8185613382565b935061304983613326565b8060005b8381101561307a5781516130618882612f8d565b975061306c83613364565b92505060018101905061304d565b5085935050505092915050565b6130908161345c565b82525050565b60006130a18261334c565b6130ab818561339e565b93506130bb8185602086016134a1565b6130c48161360d565b840191505092915050565b60006130dc600b836133af565b91506130e78261361e565b602082019050919050565b60006130ff600083613393565b915061310a82613647565b600082019050919050565b60006101008301600083015161312e6000860182612fa5565b506020830151613141602086018261320e565b506040830151613154604086018261320e565b5060608301516131676060860182613087565b50608083015161317a6080860182613087565b5060a083015161318d60a086018261320e565b5060c083015184820360c08601526131a58282613096565b91505060e083015184820360e08601526131bf8282613096565b9150508091505092915050565b6060820160008201516131e26000850182612fa5565b5060208201516131f5602085018261320e565b506040820151613208604085018261320e565b50505050565b61321781613488565b82525050565b61322681613488565b82525050565b6000613237826130f2565b9150819050919050565b6000602082019050818103600083015261325b8184612fb4565b905092915050565b6000602082019050818103600083015261327d8184613029565b905092915050565b6000602082019050818103600083015261329e816130cf565b9050919050565b60006020820190506132ba600083018461321d565b92915050565b60006132ca6132db565b90506132d68282613506565b919050565b6000604051905090565b600067ffffffffffffffff821115613300576132ff6135de565b5b6133098261360d565b9050602081019050919050565b6000819050602082019050919050565b6000819050602082019050919050565b600081519050919050565b600081519050919050565b600081519050919050565b6000602082019050919050565b6000602082019050919050565b600082825260208201905092915050565b600082825260208201905092915050565b600081905092915050565b600082825260208201905092915050565b600082825260208201905092915050565b60006133cb82613488565b91506133d683613488565b9250827fffffffffffffffffffffffffffffffffffffffffffffffffffffffffffffffff0382111561340b5761340a613580565b5b828201905092915050565b600061342182613488565b915061342c83613488565b92508282101561343f5761343e613580565b5b828203905092915050565b600061345582613468565b9050919050565b60008115159050919050565b600073ffffffffffffffffffffffffffffffffffffffff82169050919050565b6000819050919050565b82818337600083830152505050565b60005b838110156134bf5780820151818401526020810190506134a4565b838111156134ce576000848401525b50505050565b600060028204905060018216806134ec57607f821691505b60208210811415613500576134ff6135af565b5b50919050565b61350f8261360d565b810181811067ffffffffffffffff8211171561352e5761352d6135de565b5b80604052505050565b600061354282613488565b91507fffffffffffffffffffffffffffffffffffffffffffffffffffffffffffffffff82141561357557613574613580565b5b600182019050919050565b7f4e487b7100000000000000000000000000000000000000000000000000000000600052601160045260246000fd5b7f4e487b7100000000000000000000000000000000000000000000000000000000600052602260045260246000fd5b7f4e487b7100000000000000000000000000000000000000000000000000000000600052604160045260246000fd5b6000601f19601f8301169050919050565b7f63616c6c206661696c6564000000000000000000000000000000000000000000600082015250565b50565b6136538161344a565b811461365e57600080fd5b50565b61366a81613488565b811461367557600080fd5b5056fea26469706673582212207f52044e2d8e6fd60ac3d1f1ce49db5e5f58259f61d33726da75084090c6788864736f6c63430008040033",
  "devdoc": {
    "kind": "dev",
    "methods": {},
    "version": 1
  },
  "userdoc": {
    "kind": "user",
    "methods": {},
    "version": 1
  },
  "storageLayout": {
    "storage": [
      {
        "astId": 49,
        "contract": "contracts/Charity.sol:Charity",
        "label": "charities",
        "offset": 0,
        "slot": "0",
        "type": "t_array(t_struct(Charities)45_storage)dyn_storage"
      },
      {
        "astId": 53,
        "contract": "contracts/Charity.sol:Charity",
        "label": "donations",
        "offset": 0,
        "slot": "1",
        "type": "t_array(t_struct(Donations)28_storage)dyn_storage"
      }
    ],
    "types": {
      "t_address": {
        "encoding": "inplace",
        "label": "address",
        "numberOfBytes": "20"
      },
      "t_array(t_struct(Charities)45_storage)dyn_storage": {
        "base": "t_struct(Charities)45_storage",
        "encoding": "dynamic_array",
        "label": "struct Charity.Charities[]",
        "numberOfBytes": "32"
      },
      "t_array(t_struct(Donations)28_storage)dyn_storage": {
        "base": "t_struct(Donations)28_storage",
        "encoding": "dynamic_array",
        "label": "struct Charity.Donations[]",
        "numberOfBytes": "32"
      },
      "t_bool": {
        "encoding": "inplace",
        "label": "bool",
        "numberOfBytes": "1"
      },
      "t_string_storage": {
        "encoding": "bytes",
        "label": "string",
        "numberOfBytes": "32"
      },
      "t_struct(Charities)45_storage": {
        "encoding": "inplace",
        "label": "struct Charity.Charities",
        "members": [
          {
            "astId": 30,
            "contract": "contracts/Charity.sol:Charity",
            "label": "owner",
            "offset": 0,
            "slot": "0",
            "type": "t_address"
          },
          {
            "astId": 32,
            "contract": "contracts/Charity.sol:Charity",
            "label": "amountNeeded",
            "offset": 0,
            "slot": "1",
            "type": "t_uint256"
          },
          {
            "astId": 34,
            "contract": "contracts/Charity.sol:Charity",
            "label": "amountGotten",
            "offset": 0,
            "slot": "2",
            "type": "t_uint256"
          },
          {
            "astId": 36,
            "contract": "contracts/Charity.sol:Charity",
            "label": "withdrawalStatus",
            "offset": 0,
            "slot": "3",
            "type": "t_bool"
          },
          {
            "astId": 38,
            "contract": "contracts/Charity.sol:Charity",
            "label": "charityState",
            "offset": 1,
            "slot": "3",
            "type": "t_bool"
          },
          {
            "astId": 40,
            "contract": "contracts/Charity.sol:Charity",
            "label": "charityId",
            "offset": 0,
            "slot": "4",
            "type": "t_uint256"
          },
          {
            "astId": 42,
            "contract": "contracts/Charity.sol:Charity",
            "label": "descriptionCid",
            "offset": 0,
            "slot": "5",
            "type": "t_string_storage"
          },
          {
            "astId": 44,
            "contract": "contracts/Charity.sol:Charity",
            "label": "fileCid",
            "offset": 0,
            "slot": "6",
            "type": "t_string_storage"
          }
        ],
        "numberOfBytes": "224"
      },
      "t_struct(Donations)28_storage": {
        "encoding": "inplace",
        "label": "struct Charity.Donations",
        "members": [
          {
            "astId": 23,
            "contract": "contracts/Charity.sol:Charity",
            "label": "contributor",
            "offset": 0,
            "slot": "0",
            "type": "t_address"
          },
          {
            "astId": 25,
            "contract": "contracts/Charity.sol:Charity",
            "label": "amountDonated",
            "offset": 0,
            "slot": "1",
            "type": "t_uint256"
          },
          {
            "astId": 27,
            "contract": "contracts/Charity.sol:Charity",
            "label": "charityId",
            "offset": 0,
            "slot": "2",
            "type": "t_uint256"
          }
        ],
        "numberOfBytes": "96"
      },
      "t_uint256": {
        "encoding": "inplace",
        "label": "uint256",
        "numberOfBytes": "32"
      }
    }
  }
}